{
  "contractName": "KillWolf",
  "abi": [
    {
      "constant": true,
      "inputs": [],
      "name": "game_is_on",
      "outputs": [
        {
          "name": "",
          "type": "bool"
        }
      ],
      "payable": false,
      "stateMutability": "view",
      "type": "function"
    },
    {
      "constant": true,
      "inputs": [
        {
          "name": "",
          "type": "address"
        }
      ],
      "name": "indexs",
      "outputs": [
        {
          "name": "",
          "type": "uint256"
        }
      ],
      "payable": false,
      "stateMutability": "view",
      "type": "function"
    },
    {
      "constant": true,
      "inputs": [],
      "name": "wolf_counts",
      "outputs": [
        {
          "name": "",
          "type": "uint256"
        }
      ],
      "payable": false,
      "stateMutability": "view",
      "type": "function"
    },
    {
      "constant": true,
      "inputs": [],
      "name": "if_night",
      "outputs": [
        {
          "name": "",
          "type": "bool"
        }
      ],
      "payable": false,
      "stateMutability": "view",
      "type": "function"
    },
    {
      "constant": true,
      "inputs": [],
      "name": "judge",
      "outputs": [
        {
          "name": "",
          "type": "address"
        }
      ],
      "payable": false,
      "stateMutability": "view",
      "type": "function"
    },
    {
      "constant": true,
      "inputs": [],
      "name": "man_counts",
      "outputs": [
        {
          "name": "",
          "type": "uint256"
        }
      ],
      "payable": false,
      "stateMutability": "view",
      "type": "function"
    },
    {
      "constant": true,
      "inputs": [],
      "name": "day_of_game",
      "outputs": [
        {
          "name": "",
          "type": "uint256"
        }
      ],
      "payable": false,
      "stateMutability": "view",
      "type": "function"
    },
    {
      "constant": true,
      "inputs": [
        {
          "name": "",
          "type": "uint256"
        }
      ],
      "name": "sayings",
      "outputs": [
        {
          "name": "day",
          "type": "uint256"
        },
        {
          "name": "name",
          "type": "string"
        },
        {
          "name": "content",
          "type": "string"
        }
      ],
      "payable": false,
      "stateMutability": "view",
      "type": "function"
    },
    {
      "constant": true,
      "inputs": [
        {
          "name": "",
          "type": "uint256"
        }
      ],
      "name": "players",
      "outputs": [
        {
          "name": "addr",
          "type": "address"
        },
        {
          "name": "name",
          "type": "string"
        },
        {
          "name": "role",
          "type": "string"
        },
        {
          "name": "word",
          "type": "string"
        },
        {
          "name": "kill_votes",
          "type": "uint256"
        },
        {
          "name": "wolf_votes",
          "type": "uint256"
        },
        {
          "name": "if_live",
          "type": "bool"
        },
        {
          "name": "if_night_vote",
          "type": "bool"
        },
        {
          "name": "if_day_vote",
          "type": "bool"
        },
        {
          "name": "if_say",
          "type": "bool"
        }
      ],
      "payable": false,
      "stateMutability": "view",
      "type": "function"
    },
    {
      "inputs": [],
      "payable": false,
      "stateMutability": "nonpayable",
      "type": "constructor"
    },
    {
      "anonymous": false,
      "inputs": [
        {
          "indexed": true,
          "name": "_from",
          "type": "address"
        },
        {
          "indexed": true,
          "name": "_to",
          "type": "address"
        },
        {
          "indexed": false,
          "name": "f",
          "type": "uint256"
        }
      ],
      "name": "transfer",
      "type": "event"
    },
    {
      "constant": false,
      "inputs": [
        {
          "name": "newplayer",
          "type": "address"
        }
      ],
      "name": "add_players",
      "outputs": [],
      "payable": false,
      "stateMutability": "nonpayable",
      "type": "function"
    },
    {
      "constant": false,
      "inputs": [],
      "name": "start_game",
      "outputs": [],
      "payable": false,
      "stateMutability": "nonpayable",
      "type": "function"
    },
    {
      "constant": true,
      "inputs": [],
      "name": "get_counts_wolf",
      "outputs": [
        {
          "name": "",
          "type": "uint256"
        }
      ],
      "payable": false,
      "stateMutability": "view",
      "type": "function"
    },
    {
      "constant": true,
      "inputs": [],
      "name": "get_counts_man",
      "outputs": [
        {
          "name": "",
          "type": "uint256"
        }
      ],
      "payable": false,
      "stateMutability": "view",
      "type": "function"
    },
    {
      "constant": false,
      "inputs": [
        {
          "name": "hisaddress",
          "type": "address"
        }
      ],
      "name": "vote_for_man",
      "outputs": [],
      "payable": false,
      "stateMutability": "nonpayable",
      "type": "function"
    },
    {
      "constant": true,
      "inputs": [
        {
          "name": "hisname",
          "type": "string"
        }
      ],
      "name": "if_is_wolf",
      "outputs": [
        {
          "name": "",
          "type": "bool"
        }
      ],
      "payable": false,
      "stateMutability": "view",
      "type": "function"
    },
    {
      "constant": false,
      "inputs": [],
      "name": "Day_breaks",
      "outputs": [
        {
          "name": "",
          "type": "string"
        }
      ],
      "payable": false,
      "stateMutability": "nonpayable",
      "type": "function"
    },
    {
      "constant": false,
      "inputs": [
        {
          "name": "words",
          "type": "string"
        }
      ],
      "name": "player_saying",
      "outputs": [],
      "payable": false,
      "stateMutability": "nonpayable",
      "type": "function"
    },
    {
      "constant": false,
      "inputs": [
        {
          "name": "hisaddress",
          "type": "address"
        }
      ],
      "name": "vote_for_wolf",
      "outputs": [],
      "payable": false,
      "stateMutability": "nonpayable",
      "type": "function"
    },
    {
      "constant": false,
      "inputs": [],
      "name": "Day_over",
      "outputs": [
        {
          "name": "",
          "type": "string"
        }
      ],
      "payable": false,
      "stateMutability": "nonpayable",
      "type": "function"
    },
    {
      "constant": true,
      "inputs": [],
      "name": "get_result",
      "outputs": [
        {
          "name": "",
          "type": "string"
        }
      ],
      "payable": false,
      "stateMutability": "view",
      "type": "function"
    },
    {
      "constant": true,
      "inputs": [
        {
          "name": "addr",
          "type": "address"
        }
      ],
      "name": "query_role",
      "outputs": [
        {
          "name": "",
          "type": "string"
        }
      ],
      "payable": false,
      "stateMutability": "view",
      "type": "function"
    },
    {
      "constant": true,
      "inputs": [
        {
          "name": "addr",
          "type": "address"
        }
      ],
      "name": "query_number",
      "outputs": [
        {
          "name": "",
          "type": "uint256"
        }
      ],
      "payable": false,
      "stateMutability": "view",
      "type": "function"
    },
    {
      "constant": true,
      "inputs": [
        {
          "name": "i",
          "type": "uint256"
        }
      ],
      "name": "query_address",
      "outputs": [
        {
          "name": "",
          "type": "address"
        }
      ],
      "payable": false,
      "stateMutability": "view",
      "type": "function"
    },
    {
      "constant": true,
      "inputs": [],
      "name": "query_total",
      "outputs": [
        {
          "name": "",
          "type": "uint256"
        }
      ],
      "payable": false,
      "stateMutability": "view",
      "type": "function"
    },
    {
      "constant": true,
      "inputs": [
        {
          "name": "i",
          "type": "uint256"
        }
      ],
      "name": "query_lives",
      "outputs": [
        {
          "name": "",
          "type": "bool"
        }
      ],
      "payable": false,
      "stateMutability": "view",
      "type": "function"
    },
    {
      "constant": true,
      "inputs": [
        {
          "name": "i",
          "type": "uint256"
        }
      ],
      "name": "query_word",
      "outputs": [
        {
          "name": "",
          "type": "string"
        }
      ],
      "payable": false,
      "stateMutability": "view",
      "type": "function"
    },
    {
      "constant": true,
      "inputs": [
        {
          "name": "i",
          "type": "uint256"
        }
      ],
      "name": "query_dvote",
      "outputs": [
        {
          "name": "",
          "type": "uint256"
        }
      ],
      "payable": false,
      "stateMutability": "view",
      "type": "function"
    },
    {
      "constant": true,
      "inputs": [
        {
          "name": "i",
          "type": "uint256"
        }
      ],
      "name": "query_nvote",
      "outputs": [
        {
          "name": "",
          "type": "uint256"
        }
      ],
      "payable": false,
      "stateMutability": "view",
      "type": "function"
    }
  ],
  "bytecode": "0x60806040526060604051908101604052806040805190810160405280600881526020017f77657265776f6c6600000000000000000000000000000000000000000000000081525081526020016040805190810160405280600881526020017f76696c6c6167657200000000000000000000000000000000000000000000000081525081526020016040805190810160405280600881526020017f76696c6c616765720000000000000000000000000000000000000000000000008152508152506001906003620000d19291906200056e565b5060a0604051908101604052806040805190810160405280600481526020017f4d696b650000000000000000000000000000000000000000000000000000000081525081526020016040805190810160405280600481526020017f4a61636b0000000000000000000000000000000000000000000000000000000081525081526020016040805190810160405280600381526020017f546f6d000000000000000000000000000000000000000000000000000000000081525081526020016040805190810160405280600581526020017f4a6572727900000000000000000000000000000000000000000000000000000081525081526020016040805190810160405280600881526020017f536865726c75636b000000000000000000000000000000000000000000000000815250815250600290600562000215929190620005d5565b503480156200022357600080fd5b50336000806101000a81548173ffffffffffffffffffffffffffffffffffffffff021916908373ffffffffffffffffffffffffffffffffffffffff1602179055506000600360006101000a81548160ff021916908315150217905550600060048190555060006005819055506001600b60003373ffffffffffffffffffffffffffffffffffffffff1673ffffffffffffffffffffffffffffffffffffffff168152602001908152602001600020819055506000600960003373ffffffffffffffffffffffffffffffffffffffff1673ffffffffffffffffffffffffffffffffffffffff168152602001908152602001600020819055506008610140604051908101604052803373ffffffffffffffffffffffffffffffffffffffff1681526020016040805190810160405280600581526020017f6a7564676500000000000000000000000000000000000000000000000000000081525081526020016040805190810160405280600581526020017f6a756467650000000000000000000000000000000000000000000000000000008152508152602001602060405190810160405280600081525081526020016000815260200160008152602001600115158152602001600015158152602001600015158152602001600015158152509080600181540180825580915050906001820390600052602060002090600702016000909192909190915060008201518160000160006101000a81548173ffffffffffffffffffffffffffffffffffffffff021916908373ffffffffffffffffffffffffffffffffffffffff1602179055506020820151816001019080519060200190620004909291906200063c565b506040820151816002019080519060200190620004af9291906200063c565b506060820151816003019080519060200190620004ce9291906200063c565b506080820151816004015560a0820151816005015560c08201518160060160006101000a81548160ff02191690831515021790555060e08201518160060160016101000a81548160ff0219169083151502179055506101008201518160060160026101000a81548160ff0219169083151502179055506101208201518160060160036101000a81548160ff02191690831515021790555050505062000768565b828054828255906000526020600020908101928215620005c2579160200282015b82811115620005c1578251829080519060200190620005b09291906200063c565b50916020019190600101906200058f565b5b509050620005d19190620006c3565b5090565b82805482825590600052602060002090810192821562000629579160200282015b8281111562000628578251829080519060200190620006179291906200063c565b5091602001919060010190620005f6565b5b509050620006389190620006c3565b5090565b828054600181600116156101000203166002900490600052602060002090601f016020900481019282601f106200067f57805160ff1916838001178555620006b0565b82800160010185558215620006b0579182015b82811115620006af57825182559160200191906001019062000692565b5b509050620006bf9190620006f4565b5090565b620006f191905b80821115620006ed5760008181620006e391906200071c565b50600101620006ca565b5090565b90565b6200071991905b8082111562000715576000816000905550600101620006fb565b5090565b90565b50805460018160011615610100020316600290046000825580601f1062000744575062000765565b601f016020900490600052602060002090810190620007649190620006f4565b5b50565b61467d80620007786000396000f30060806040526004361061016a576000357c0100000000000000000000000000000000000000000000000000000000900463ffffffff168063223f671d1461016f578063244967b31461019e5780632bc33616146101b55780632d1f329f146101e05780633cc575ec146102375780633da4d241146102a457806341902733146102e757806349ea9bc51461038d5780634d5fa6f8146103b857806355abdd4914610448578063573255f4146104775780635b009ac1146104ce5780635b8bc42f146105375780636176ad6414610562578063711fcacb1461058d578063725575a3146105d05780637d513e6514610660578063a043b9ee146106a1578063a77ffa9d14610722578063d05b8e8f146107de578063d2ca13aa1461086e578063d504096f146108af578063d770477a146108f2578063df1365901461091d578063e394d6d014610948578063ec90f29114610a61578063f71d96cb14610ab8578063f82fcb6e14610ca3575b600080fd5b34801561017b57600080fd5b50610184610ce8565b604051808215151515815260200191505060405180910390f35b3480156101aa57600080fd5b506101b3610cfb565b005b3480156101c157600080fd5b506101ca610ea7565b6040518082815260200191505060405180910390f35b3480156101ec57600080fd5b50610221600480360381019080803573ffffffffffffffffffffffffffffffffffffffff169060200190929190505050610eb4565b6040518082815260200191505060405180910390f35b34801561024357600080fd5b5061026260048036038101908080359060200190929190505050610ecc565b604051808273ffffffffffffffffffffffffffffffffffffffff1673ffffffffffffffffffffffffffffffffffffffff16815260200191505060405180910390f35b3480156102b057600080fd5b506102e5600480360381019080803573ffffffffffffffffffffffffffffffffffffffff169060200190929190505050610f16565b005b3480156102f357600080fd5b50610312600480360381019080803590602001909291905050506117ad565b6040518080602001828103825283818151815260200191508051906020019080838360005b83811015610352578082015181840152602081019050610337565b50505050905090810190601f16801561037f5780820380516001836020036101000a031916815260200191505b509250505060405180910390f35b34801561039957600080fd5b506103a261186f565b6040518082815260200191505060405180910390f35b3480156103c457600080fd5b506103cd611875565b6040518080602001828103825283818151815260200191508051906020019080838360005b8381101561040d5780820151818401526020810190506103f2565b50505050905090810190601f16801561043a5780820380516001836020036101000a031916815260200191505b509250505060405180910390f35b34801561045457600080fd5b5061045d6119e7565b604051808215151515815260200191505060405180910390f35b34801561048357600080fd5b5061048c6119fa565b604051808273ffffffffffffffffffffffffffffffffffffffff1673ffffffffffffffffffffffffffffffffffffffff16815260200191505060405180910390f35b3480156104da57600080fd5b50610535600480360381019080803590602001908201803590602001908080601f0160208091040260200160405190810160405280939291908181526020018383808284378201915050505050509192919290505050611a1f565b005b34801561054357600080fd5b5061054c611a96565b6040518082815260200191505060405180910390f35b34801561056e57600080fd5b50610577611be2565b6040518082815260200191505060405180910390f35b34801561059957600080fd5b506105ce600480360381019080803573ffffffffffffffffffffffffffffffffffffffff169060200190929190505050611be8565b005b3480156105dc57600080fd5b506105e5611d29565b6040518080602001828103825283818151815260200191508051906020019080838360005b8381101561062557808201518184015260208101905061060a565b50505050905090810190601f1680156106525780820380516001836020036101000a031916815260200191505b509250505060405180910390f35b34801561066c57600080fd5b5061068b60048036038101908080359060200190929190505050612638565b6040518082815260200191505060405180910390f35b3480156106ad57600080fd5b50610708600480360381019080803590602001908201803590602001908080601f0160208091040260200160405190810160405280939291908181526020018383808284378201915050505050509192919290505050612662565b604051808215151515815260200191505060405180910390f35b34801561072e57600080fd5b50610763600480360381019080803573ffffffffffffffffffffffffffffffffffffffff169060200190929190505050612c9f565b6040518080602001828103825283818151815260200191508051906020019080838360005b838110156107a3578082015181840152602081019050610788565b50505050905090810190601f1680156107d05780820380516001836020036101000a031916815260200191505b509250505060405180910390f35b3480156107ea57600080fd5b506107f3612e26565b6040518080602001828103825283818151815260200191508051906020019080838360005b83811015610833578082015181840152602081019050610818565b50505050905090810190601f1680156108605780820380516001836020036101000a031916815260200191505b509250505060405180910390f35b34801561087a57600080fd5b5061089960048036038101908080359060200190929190505050613807565b6040518082815260200191505060405180910390f35b3480156108bb57600080fd5b506108f0600480360381019080803573ffffffffffffffffffffffffffffffffffffffff169060200190929190505050613831565b005b3480156108fe57600080fd5b50610907613e2e565b6040518082815260200191505060405180910390f35b34801561092957600080fd5b50610932613f7a565b6040518082815260200191505060405180910390f35b34801561095457600080fd5b5061097360048036038101908080359060200190929190505050613f80565b604051808481526020018060200180602001838103835285818151815260200191508051906020019080838360005b838110156109bd5780820151818401526020810190506109a2565b50505050905090810190601f1680156109ea5780820380516001836020036101000a031916815260200191505b50838103825284818151815260200191508051906020019080838360005b83811015610a23578082015181840152602081019050610a08565b50505050905090810190601f168015610a505780820380516001836020036101000a031916815260200191505b509550505050505060405180910390f35b348015610a6d57600080fd5b50610aa2600480360381019080803573ffffffffffffffffffffffffffffffffffffffff1690602001909291905050506140e9565b6040518082815260200191505060405180910390f35b348015610ac457600080fd5b50610ae360048036038101908080359060200190929190505050614132565b604051808b73ffffffffffffffffffffffffffffffffffffffff1673ffffffffffffffffffffffffffffffffffffffff1681526020018060200180602001806020018a81526020018981526020018815151515815260200187151515158152602001861515151581526020018515151515815260200184810384528d818151815260200191508051906020019080838360005b83811015610b91578082015181840152602081019050610b76565b50505050905090810190601f168015610bbe5780820380516001836020036101000a031916815260200191505b5084810383528c818151815260200191508051906020019080838360005b83811015610bf7578082015181840152602081019050610bdc565b50505050905090810190601f168015610c245780820380516001836020036101000a031916815260200191505b5084810382528b818151815260200191508051906020019080838360005b83811015610c5d578082015181840152602081019050610c42565b50505050905090810190601f168015610c8a5780820380516001836020036101000a031916815260200191505b509d505050505050505050505050505060405180910390f35b348015610caf57600080fd5b50610cce600480360381019080803590602001909291905050506143b1565b604051808215151515815260200191505060405180910390f35b600360009054906101000a900460ff1681565b6000809054906101000a900473ffffffffffffffffffffffffffffffffffffffff1673ffffffffffffffffffffffffffffffffffffffff163373ffffffffffffffffffffffffffffffffffffffff16141515610dbf576040517f08c379a00000000000000000000000000000000000000000000000000000000081526004018080602001828103825260198152602001807f796f7520646f6e2774206861766520746865207269676874210000000000000081525060200191505060405180910390fd5b60018054905060088054905010151515610e67576040517f08c379a00000000000000000000000000000000000000000000000000000000081526004018080602001828103825260248152602001807f746865206e756d626572206f6620706c6179657273206973206e6f7420656e6f81526020017f756768210000000000000000000000000000000000000000000000000000000081525060400191505060405180910390fd5b6001600360006101000a81548160ff0219169083151502179055506001600360016101000a81548160ff0219169083151502179055506001600681905550565b6000600880549050905090565b60096020528060005260406000206000915090505481565b6000600882815481101515610edd57fe5b906000526020600020906007020160000160009054906101000a900473ffffffffffffffffffffffffffffffffffffffff169050919050565b6000808273ffffffffffffffffffffffffffffffffffffffff163373ffffffffffffffffffffffffffffffffffffffff167fbeabacc8ffedac16e9a60acdb2ca743d80c2ebb44977a93fa8e483c74d2b35a860016040518082815260200191505060405180910390a36000809054906101000a900473ffffffffffffffffffffffffffffffffffffffff1673ffffffffffffffffffffffffffffffffffffffff163373ffffffffffffffffffffffffffffffffffffffff16141515611043576040517f08c379a00000000000000000000000000000000000000000000000000000000081526004018080602001828103825260198152602001807f796f7520646f6e2774206861766520746865207269676874210000000000000081525060200191505060405180910390fd5b8273ffffffffffffffffffffffffffffffffffffffff163373ffffffffffffffffffffffffffffffffffffffff167fbeabacc8ffedac16e9a60acdb2ca743d80c2ebb44977a93fa8e483c74d2b35a860026040518082815260200191505060405180910390a360001515600360009054906101000a900460ff161515141515611134576040517f08c379a000000000000000000000000000000000000000000000000000000000815260040180806020018281038252600f8152602001807f7468652067616d65206973206f6e21000000000000000000000000000000000081525060200191505060405180910390fd5b8273ffffffffffffffffffffffffffffffffffffffff163373ffffffffffffffffffffffffffffffffffffffff167fbeabacc8ffedac16e9a60acdb2ca743d80c2ebb44977a93fa8e483c74d2b35a860036040518082815260200191505060405180910390a36000600b60008573ffffffffffffffffffffffffffffffffffffffff1673ffffffffffffffffffffffffffffffffffffffff16815260200190815260200160002054141515611251576040517f08c379a000000000000000000000000000000000000000000000000000000000815260040180806020018281038252601a8152602001807f796f7520686176652061646465642074686520706c617965722100000000000081525060200191505060405180910390fd5b8273ffffffffffffffffffffffffffffffffffffffff163373ffffffffffffffffffffffffffffffffffffffff167fbeabacc8ffedac16e9a60acdb2ca743d80c2ebb44977a93fa8e483c74d2b35a860046040518082815260200191505060405180910390a3600091506001600880549050039050600180549050811015156112e8576002818115156112e057fe5b0691506112ec565b8091505b600082141561130657600160045401600481905550611313565b6001600554016005819055505b6008610140604051908101604052808573ffffffffffffffffffffffffffffffffffffffff16815260200160028481548110151561134d57fe5b906000526020600020018054600181600116156101000203166002900480601f0160208091040260200160405190810160405280929190818152602001828054600181600116156101000203166002900480156113eb5780601f106113c0576101008083540402835291602001916113eb565b820191906000526020600020905b8154815290600101906020018083116113ce57829003601f168201915b5050505050815260200160018581548110151561140457fe5b906000526020600020018054600181600116156101000203166002900480601f0160208091040260200160405190810160405280929190818152602001828054600181600116156101000203166002900480156114a25780601f10611477576101008083540402835291602001916114a2565b820191906000526020600020905b81548152906001019060200180831161148557829003601f168201915b50505050508152602001602060405190810160405280600081525081526020016000815260200160008152602001600115158152602001600015158152602001600015158152602001600015158152509080600181540180825580915050906001820390600052602060002090600702016000909192909190915060008201518160000160006101000a81548173ffffffffffffffffffffffffffffffffffffffff021916908373ffffffffffffffffffffffffffffffffffffffff160217905550602082015181600101908051906020019061158092919061452c565b50604082015181600201908051906020019061159d92919061452c565b5060608201518160030190805190602001906115ba92919061452c565b506080820151816004015560a0820151816005015560c08201518160060160006101000a81548160ff02191690831515021790555060e08201518160060160016101000a81548160ff0219169083151502179055506101008201518160060160026101000a81548160ff0219169083151502179055506101208201518160060160036101000a81548160ff02191690831515021790555050505082600a60028381548110151561166657fe5b9060005260206000200160405180828054600181600116156101000203166002900480156116cb5780601f106116a95761010080835404028352918201916116cb565b820191906000526020600020905b8154815290600101906020018083116116b7575b5050915050908152602001604051809103902060006101000a81548173ffffffffffffffffffffffffffffffffffffffff021916908373ffffffffffffffffffffffffffffffffffffffff16021790555060018101600960008573ffffffffffffffffffffffffffffffffffffffff1673ffffffffffffffffffffffffffffffffffffffff168152602001908152602001600020819055506001600b60008573ffffffffffffffffffffffffffffffffffffffff1673ffffffffffffffffffffffffffffffffffffffff16815260200190815260200160002081905550505050565b60606008828154811015156117be57fe5b90600052602060002090600702016003018054600181600116156101000203166002900480601f0160208091040260200160405190810160405280929190818152602001828054600181600116156101000203166002900480156118635780601f1061183857610100808354040283529160200191611863565b820191906000526020600020905b81548152906001019060200180831161184657829003601f168201915b50505050509050919050565b60045481565b60606001600b60003373ffffffffffffffffffffffffffffffffffffffff1673ffffffffffffffffffffffffffffffffffffffff1681526020019081526020016000205414151561192e576040517f08c379a000000000000000000000000000000000000000000000000000000000815260040180806020018281038252601c8152602001807f796f7520686176656e2774206a6f696e6564207468652067616d65210000000081525060200191505060405180910390fd5b60011515600360009054906101000a900460ff161515141561196257602060405190810160405280600081525090506119e4565b60055460045410156119ab576040805190810160405280600a81526020017fe78bbce4babae8839c210000000000000000000000000000000000000000000081525090506119e4565b6040805190810160405280600a81526020017fe69d91e6b091e8839c210000000000000000000000000000000000000000000081525090505b90565b600360019054906101000a900460ff1681565b6000809054906101000a900473ffffffffffffffffffffffffffffffffffffffff1681565b806008600960003373ffffffffffffffffffffffffffffffffffffffff1673ffffffffffffffffffffffffffffffffffffffff16815260200190815260200160002054815481101515611a6e57fe5b90600052602060002090600702016003019080519060200190611a929291906145ac565b5050565b600060011515600360009054906101000a900460ff161515141515611b23576040517f08c379a00000000000000000000000000000000000000000000000000000000081526004018080602001828103825260138152602001807f7468652067616d65206973206e6f74206f6e210000000000000000000000000081525060200191505060405180910390fd5b6001600b60003373ffffffffffffffffffffffffffffffffffffffff1673ffffffffffffffffffffffffffffffffffffffff16815260200190815260200160002054141515611bda576040517f08c379a000000000000000000000000000000000000000000000000000000000815260040180806020018281038252601c8152602001807f796f7520686176656e2774206a6f696e6564207468652067616d65210000000081525060200191505060405180910390fd5b600454905090565b60055481565b60016008600960008473ffffffffffffffffffffffffffffffffffffffff1673ffffffffffffffffffffffffffffffffffffffff16815260200190815260200160002054815481101515611c3857fe5b906000526020600020906007020160050154016008600960008473ffffffffffffffffffffffffffffffffffffffff1673ffffffffffffffffffffffffffffffffffffffff16815260200190815260200160002054815481101515611c9957fe5b90600052602060002090600702016005018190555060016008600960003373ffffffffffffffffffffffffffffffffffffffff1673ffffffffffffffffffffffffffffffffffffffff16815260200190815260200160002054815481101515611cfe57fe5b906000526020600020906007020160060160026101000a81548160ff02191690831515021790555050565b6060600080600060606001600b60003373ffffffffffffffffffffffffffffffffffffffff1673ffffffffffffffffffffffffffffffffffffffff16815260200190815260200160002054141515611de9576040517f08c379a000000000000000000000000000000000000000000000000000000000815260040180806020018281038252601c8152602001807f796f7520686176656e2774206a6f696e6564207468652067616d65210000000081525060200191505060405180910390fd5b6000809054906101000a900473ffffffffffffffffffffffffffffffffffffffff1673ffffffffffffffffffffffffffffffffffffffff163373ffffffffffffffffffffffffffffffffffffffff16141515611ead576040517f08c379a00000000000000000000000000000000000000000000000000000000081526004018080602001828103825260198152602001807f796f7520646f6e2774206861766520746865207269676874210000000000000081525060200191505060405180910390fd5b60011515600360009054906101000a900460ff161515141515611f38576040517f08c379a00000000000000000000000000000000000000000000000000000000081526004018080602001828103825260138152602001807f7468652067616d65206973206e6f74206f6e210000000000000000000000000081525060200191505060405180910390fd5b60001515600360019054906101000a900460ff161515141515611fc3576040517f08c379a00000000000000000000000000000000000000000000000000000000081526004018080602001828103825260118152602001807f697427732064617974696d65206e6f772100000000000000000000000000000081525060200191505060405180910390fd5b6001935060009250600192505b60088054905083101561206a5760001515600884815481101515611ff057fe5b906000526020600020906007020160060160029054906101000a900460ff16151514801561204f57506001151560088481548110151561202c57fe5b906000526020600020906007020160060160009054906101000a900460ff161515145b1561205d576000935061206a565b8280600101935050611fd0565b600115158415151415156120e6576040517f08c379a00000000000000000000000000000000000000000000000000000000081526004018080602001828103825260148152602001807f736f6d656f6e65206861736e277420766f74656400000000000000000000000081525060200191505060405180910390fd5b6000915060206040519081016040528060008152509050600192505b6008805490508310156122f8578160088481548110151561211f57fe5b90600052602060002090600702016005015411801561216f57506001151560088481548110151561214c57fe5b906000526020600020906007020160060160009054906101000a900460ff161515145b156122535760088381548110151561218357fe5b90600052602060002090600702016005015491506008838154811015156121a657fe5b90600052602060002090600702016001018054600181600116156101000203166002900480601f01602080910402602001604051908101604052809291908181526020018280546001816001161561010002031660029004801561224b5780601f106122205761010080835404028352916020019161224b565b820191906000526020600020905b81548152906001019060200180831161222e57829003601f168201915b505050505090505b600060088481548110151561226457fe5b906000526020600020906007020160050181905550600060088481548110151561228a57fe5b906000526020600020906007020160060160026101000a81548160ff02191690831515021790555060006008848154811015156122c357fe5b906000526020600020906007020160060160036101000a81548160ff0219169083151502179055508280600101935050612102565b6000600860096000600a856040518082805190602001908083835b6020831015156123385780518252602082019150602081019050602083039250612313565b6001836020036101000a038019825116818451168082178552505050505050905001915050908152602001604051809103902060009054906101000a900473ffffffffffffffffffffffffffffffffffffffff1673ffffffffffffffffffffffffffffffffffffffff1673ffffffffffffffffffffffffffffffffffffffff168152602001908152602001600020548154811015156123d357fe5b906000526020600020906007020160060160006101000a81548160ff0219169083151502179055506125bc600860096000600a856040518082805190602001908083835b60208310151561243c5780518252602082019150602081019050602083039250612417565b6001836020036101000a038019825116818451168082178552505050505050905001915050908152602001604051809103902060009054906101000a900473ffffffffffffffffffffffffffffffffffffffff1673ffffffffffffffffffffffffffffffffffffffff1673ffffffffffffffffffffffffffffffffffffffff168152602001908152602001600020548154811015156124d757fe5b90600052602060002090600702016002018054600181600116156101000203166002900480601f01602080910402602001604051908101604052809291908181526020018280546001816001161561010002031660029004801561257c5780601f106125515761010080835404028352916020019161257c565b820191906000526020600020905b81548152906001019060200180831161255f57829003601f168201915b50505050506040805190810160405280600881526020017f77657265776f6c660000000000000000000000000000000000000000000000008152506143e8565b156125d2576001600454036004819055506125df565b6001600554036005819055505b6001600360016101000a81548160ff0219169083151502179055506000600454148061260d57506000600554145b1561262e576000600360006101000a81548160ff0219169083151502179055505b8094505050505090565b600060088281548110151561264957fe5b9060005260206000209060070201600401549050919050565b600060011515600360009054906101000a900460ff1615151415156126ef576040517f08c379a00000000000000000000000000000000000000000000000000000000081526004018080602001828103825260138152602001807f7468652067616d65206973206e6f74206f6e210000000000000000000000000081525060200191505060405180910390fd5b6001600b60003373ffffffffffffffffffffffffffffffffffffffff1673ffffffffffffffffffffffffffffffffffffffff168152602001908152602001600020541415156127a6576040517f08c379a000000000000000000000000000000000000000000000000000000000815260040180806020018281038252601c8152602001807f796f7520686176656e2774206a6f696e6564207468652067616d65210000000081525060200191505060405180910390fd5b6000809054906101000a900473ffffffffffffffffffffffffffffffffffffffff1673ffffffffffffffffffffffffffffffffffffffff163373ffffffffffffffffffffffffffffffffffffffff16148061293357506129326008600960003373ffffffffffffffffffffffffffffffffffffffff1673ffffffffffffffffffffffffffffffffffffffff1681526020019081526020016000205481548110151561284d57fe5b90600052602060002090600702016002018054600181600116156101000203166002900480601f0160208091040260200160405190810160405280929190818152602001828054600181600116156101000203166002900480156128f25780601f106128c7576101008083540402835291602001916128f2565b820191906000526020600020905b8154815290600101906020018083116128d557829003601f168201915b50505050506040805190810160405280600881526020017f77657265776f6c660000000000000000000000000000000000000000000000008152506143e8565b5b15156129a7576040517f08c379a00000000000000000000000000000000000000000000000000000000081526004018080602001828103825260198152602001807f796f7520646f6e2774206861766520746865207269676874210000000000000081525060200191505060405180910390fd5b600073ffffffffffffffffffffffffffffffffffffffff16600a836040518082805190602001908083835b6020831015156129f757805182526020820191506020810190506020830392506129d2565b6001836020036101000a038019825116818451168082178552505050505050905001915050908152602001604051809103902060009054906101000a900473ffffffffffffffffffffffffffffffffffffffff1673ffffffffffffffffffffffffffffffffffffffff1614151515612ad7576040517f08c379a00000000000000000000000000000000000000000000000000000000081526004018080602001828103825260178152602001807f746865206e616d6520646f65736e27742065786973742100000000000000000081525060200191505060405180910390fd5b612c98600860096000600a866040518082805190602001908083835b602083101515612b185780518252602082019150602081019050602083039250612af3565b6001836020036101000a038019825116818451168082178552505050505050905001915050908152602001604051809103902060009054906101000a900473ffffffffffffffffffffffffffffffffffffffff1673ffffffffffffffffffffffffffffffffffffffff1673ffffffffffffffffffffffffffffffffffffffff16815260200190815260200160002054815481101515612bb357fe5b90600052602060002090600702016002018054600181600116156101000203166002900480601f016020809104026020016040519081016040528092919081815260200182805460018160011615610100020316600290048015612c585780601f10612c2d57610100808354040283529160200191612c58565b820191906000526020600020905b815481529060010190602001808311612c3b57829003601f168201915b50505050506040805190810160405280600881526020017f77657265776f6c660000000000000000000000000000000000000000000000008152506143e8565b9050919050565b60606000600b60008473ffffffffffffffffffffffffffffffffffffffff1673ffffffffffffffffffffffffffffffffffffffff168152602001908152602001600020541415612d26576040805190810160405280601581526020017fe7ad89e5be85e98280e8afb7e4b8adc2b7c2b7c2b700000000000000000000008152509050612e21565b6008600960008473ffffffffffffffffffffffffffffffffffffffff1673ffffffffffffffffffffffffffffffffffffffff16815260200190815260200160002054815481101515612d7457fe5b90600052602060002090600702016002018054600181600116156101000203166002900480601f016020809104026020016040519081016040528092919081815260200182805460018160011615610100020316600290048015612e195780601f10612dee57610100808354040283529160200191612e19565b820191906000526020600020905b815481529060010190602001808311612dfc57829003601f168201915b505050505090505b919050565b6060600080600060606001600b60003373ffffffffffffffffffffffffffffffffffffffff1673ffffffffffffffffffffffffffffffffffffffff16815260200190815260200160002054141515612ee6576040517f08c379a000000000000000000000000000000000000000000000000000000000815260040180806020018281038252601c8152602001807f796f7520686176656e2774206a6f696e6564207468652067616d65210000000081525060200191505060405180910390fd5b6000809054906101000a900473ffffffffffffffffffffffffffffffffffffffff1673ffffffffffffffffffffffffffffffffffffffff163373ffffffffffffffffffffffffffffffffffffffff16141515612faa576040517f08c379a00000000000000000000000000000000000000000000000000000000081526004018080602001828103825260198152602001807f796f7520646f6e2774206861766520746865207269676874210000000000000081525060200191505060405180910390fd5b60011515600360009054906101000a900460ff161515141515613035576040517f08c379a00000000000000000000000000000000000000000000000000000000081526004018080602001828103825260138152602001807f7468652067616d65206973206e6f74206f6e210000000000000000000000000081525060200191505060405180910390fd5b60011515600360019054906101000a900460ff1615151415156130c0576040517f08c379a00000000000000000000000000000000000000000000000000000000081526004018080602001828103825260118152602001807f697427732064617974696d65206e6f772100000000000000000000000000000081525060200191505060405180910390fd5b6001935060009250600192505b600880549050831015613266576131d16008848154811015156130ec57fe5b90600052602060002090600702016002018054600181600116156101000203166002900480601f0160208091040260200160405190810160405280929190818152602001828054600181600116156101000203166002900480156131915780601f1061316657610100808354040283529160200191613191565b820191906000526020600020905b81548152906001019060200180831161317457829003601f168201915b50505050506040805190810160405280600881526020017f77657265776f6c660000000000000000000000000000000000000000000000008152506143e8565b801561320e5750600015156008848154811015156131eb57fe5b906000526020600020906007020160060160019054906101000a900460ff161515145b801561324b57506001151560088481548110151561322857fe5b906000526020600020906007020160060160009054906101000a900460ff161515145b156132595760009350613266565b82806001019350506130cd565b600115158415151415156132e2576040517f08c379a000000000000000000000000000000000000000000000000000000000815260040180806020018281038252601d8152602001807f736f6d652077657265776f6c76657320686176656e277420766f74656400000081525060200191505060405180910390fd5b6000915060206040519081016040528060008152509050600192505b6008805490508310156134bb578160088481548110151561331b57fe5b90600052602060002090600702016004015411801561336b57506001151560088481548110151561334857fe5b906000526020600020906007020160060160009054906101000a900460ff161515145b1561344f5760088381548110151561337f57fe5b90600052602060002090600702016004015491506008838154811015156133a257fe5b90600052602060002090600702016001018054600181600116156101000203166002900480601f0160208091040260200160405190810160405280929190818152602001828054600181600116156101000203166002900480156134475780601f1061341c57610100808354040283529160200191613447565b820191906000526020600020905b81548152906001019060200180831161342a57829003601f168201915b505050505090505b600060088481548110151561346057fe5b906000526020600020906007020160040181905550600060088481548110151561348657fe5b906000526020600020906007020160060160016101000a81548160ff02191690831515021790555082806001019350506132fe565b6000600860096000600a856040518082805190602001908083835b6020831015156134fb57805182526020820191506020810190506020830392506134d6565b6001836020036101000a038019825116818451168082178552505050505050905001915050908152602001604051809103902060009054906101000a900473ffffffffffffffffffffffffffffffffffffffff1673ffffffffffffffffffffffffffffffffffffffff1673ffffffffffffffffffffffffffffffffffffffff1681526020019081526020016000205481548110151561359657fe5b906000526020600020906007020160060160006101000a81548160ff02191690831515021790555061377f600860096000600a856040518082805190602001908083835b6020831015156135ff57805182526020820191506020810190506020830392506135da565b6001836020036101000a038019825116818451168082178552505050505050905001915050908152602001604051809103902060009054906101000a900473ffffffffffffffffffffffffffffffffffffffff1673ffffffffffffffffffffffffffffffffffffffff1673ffffffffffffffffffffffffffffffffffffffff1681526020019081526020016000205481548110151561369a57fe5b90600052602060002090600702016002018054600181600116156101000203166002900480601f01602080910402602001604051908101604052809291908181526020018280546001816001161561010002031660029004801561373f5780601f106137145761010080835404028352916020019161373f565b820191906000526020600020905b81548152906001019060200180831161372257829003601f168201915b50505050506040805190810160405280600881526020017f77657265776f6c660000000000000000000000000000000000000000000000008152506143e8565b15613795576001600454036004819055506137a2565b6001600554036005819055505b6000600360016101000a81548160ff021916908315150217905550600060045414806137d057506000600554145b156137f1576000600360006101000a81548160ff0219169083151502179055505b6001600654016006819055508094505050505090565b600060088281548110151561381857fe5b9060005260206000209060070201600501549050919050565b60011515600360009054906101000a900460ff1615151415156138bc576040517f08c379a00000000000000000000000000000000000000000000000000000000081526004018080602001828103825260138152602001807f7468652067616d65206973206e6f74206f6e210000000000000000000000000081525060200191505060405180910390fd5b6001600b60003373ffffffffffffffffffffffffffffffffffffffff1673ffffffffffffffffffffffffffffffffffffffff16815260200190815260200160002054141515613973576040517f08c379a000000000000000000000000000000000000000000000000000000000815260040180806020018281038252601c8152602001807f796f7520686176656e2774206a6f696e6564207468652067616d65210000000081525060200191505060405180910390fd5b613aa96008600960003373ffffffffffffffffffffffffffffffffffffffff1673ffffffffffffffffffffffffffffffffffffffff168152602001908152602001600020548154811015156139c457fe5b90600052602060002090600702016002018054600181600116156101000203166002900480601f016020809104026020016040519081016040528092919081815260200182805460018160011615610100020316600290048015613a695780601f10613a3e57610100808354040283529160200191613a69565b820191906000526020600020905b815481529060010190602001808311613a4c57829003601f168201915b50505050506040805190810160405280600881526020017f77657265776f6c660000000000000000000000000000000000000000000000008152506143e8565b1515613b1d576040517f08c379a00000000000000000000000000000000000000000000000000000000081526004018080602001828103825260138152602001807f796f7520617265206e6f74206120776f6c66210000000000000000000000000081525060200191505060405180910390fd5b600015156008600960003373ffffffffffffffffffffffffffffffffffffffff1673ffffffffffffffffffffffffffffffffffffffff16815260200190815260200160002054815481101515613b6f57fe5b906000526020600020906007020160060160019054906101000a900460ff161515141515613c05576040517f08c379a000000000000000000000000000000000000000000000000000000000815260040180806020018281038252600f8152602001807f796f75206861766520766f74656421000000000000000000000000000000000081525060200191505060405180910390fd5b600115156008600960003373ffffffffffffffffffffffffffffffffffffffff1673ffffffffffffffffffffffffffffffffffffffff16815260200190815260200160002054815481101515613c5757fe5b906000526020600020906007020160060160009054906101000a900460ff161515141515613ced576040517f08c379a000000000000000000000000000000000000000000000000000000000815260040180806020018281038252600e8152602001807f796f75206861766520646965642100000000000000000000000000000000000081525060200191505060405180910390fd5b60016008600960008473ffffffffffffffffffffffffffffffffffffffff1673ffffffffffffffffffffffffffffffffffffffff16815260200190815260200160002054815481101515613d3d57fe5b906000526020600020906007020160040154016008600960008473ffffffffffffffffffffffffffffffffffffffff1673ffffffffffffffffffffffffffffffffffffffff16815260200190815260200160002054815481101515613d9e57fe5b90600052602060002090600702016004018190555060016008600960003373ffffffffffffffffffffffffffffffffffffffff1673ffffffffffffffffffffffffffffffffffffffff16815260200190815260200160002054815481101515613e0357fe5b906000526020600020906007020160060160016101000a81548160ff02191690831515021790555050565b600060011515600360009054906101000a900460ff161515141515613ebb576040517f08c379a00000000000000000000000000000000000000000000000000000000081526004018080602001828103825260138152602001807f7468652067616d65206973206e6f74206f6e210000000000000000000000000081525060200191505060405180910390fd5b6001600b60003373ffffffffffffffffffffffffffffffffffffffff1673ffffffffffffffffffffffffffffffffffffffff16815260200190815260200160002054141515613f72576040517f08c379a000000000000000000000000000000000000000000000000000000000815260040180806020018281038252601c8152602001807f796f7520686176656e2774206a6f696e6564207468652067616d65210000000081525060200191505060405180910390fd5b600554905090565b60065481565b600781815481101515613f8f57fe5b9060005260206000209060030201600091509050806000015490806001018054600181600116156101000203166002900480601f0160208091040260200160405190810160405280929190818152602001828054600181600116156101000203166002900480156140415780601f1061401657610100808354040283529160200191614041565b820191906000526020600020905b81548152906001019060200180831161402457829003601f168201915b505050505090806002018054600181600116156101000203166002900480601f0160208091040260200160405190810160405280929190818152602001828054600181600116156101000203166002900480156140df5780601f106140b4576101008083540402835291602001916140df565b820191906000526020600020905b8154815290600101906020018083116140c257829003601f168201915b5050505050905083565b6000600960008373ffffffffffffffffffffffffffffffffffffffff1673ffffffffffffffffffffffffffffffffffffffff168152602001908152602001600020549050919050565b60088181548110151561414157fe5b90600052602060002090600702016000915090508060000160009054906101000a900473ffffffffffffffffffffffffffffffffffffffff1690806001018054600181600116156101000203166002900480601f0160208091040260200160405190810160405280929190818152602001828054600181600116156101000203166002900480156142135780601f106141e857610100808354040283529160200191614213565b820191906000526020600020905b8154815290600101906020018083116141f657829003601f168201915b505050505090806002018054600181600116156101000203166002900480601f0160208091040260200160405190810160405280929190818152602001828054600181600116156101000203166002900480156142b15780601f10614286576101008083540402835291602001916142b1565b820191906000526020600020905b81548152906001019060200180831161429457829003601f168201915b505050505090806003018054600181600116156101000203166002900480601f01602080910402602001604051908101604052809291908181526020018280546001816001161561010002031660029004801561434f5780601f106143245761010080835404028352916020019161434f565b820191906000526020600020905b81548152906001019060200180831161433257829003601f168201915b5050505050908060040154908060050154908060060160009054906101000a900460ff16908060060160019054906101000a900460ff16908060060160029054906101000a900460ff16908060060160039054906101000a900460ff1690508a565b60006008828154811015156143c257fe5b906000526020600020906007020160060160009054906101000a900460ff169050919050565b600080825184511415156143ff5760009150614525565b600090505b835181101561452057828181518110151561441b57fe5b9060200101517f010000000000000000000000000000000000000000000000000000000000000090047f0100000000000000000000000000000000000000000000000000000000000000027effffffffffffffffffffffffffffffffffffffffffffffffffffffffffffff1916848281518110151561449657fe5b9060200101517f010000000000000000000000000000000000000000000000000000000000000090047f0100000000000000000000000000000000000000000000000000000000000000027effffffffffffffffffffffffffffffffffffffffffffffffffffffffffffff19161415156145135760009150614525565b8080600101915050614404565b600191505b5092915050565b828054600181600116156101000203166002900490600052602060002090601f016020900481019282601f1061456d57805160ff191683800117855561459b565b8280016001018555821561459b579182015b8281111561459a57825182559160200191906001019061457f565b5b5090506145a8919061462c565b5090565b828054600181600116156101000203166002900490600052602060002090601f016020900481019282601f106145ed57805160ff191683800117855561461b565b8280016001018555821561461b579182015b8281111561461a5782518255916020019190600101906145ff565b5b509050614628919061462c565b5090565b61464e91905b8082111561464a576000816000905550600101614632565b5090565b905600a165627a7a72305820493010e9b2fa0a202e3d5ac156373bc779cb848ecd68cbee2af254a20e099aa90029",
  "source": "pragma solidity ^0.4.25;\r\ncontract KillWolf{\r\n    //\r\n    address public judge;\r\n    //\r\n    string[] roles = [\"werewolf\", \"villager\", \"villager\"];\r\n    //\r\n    string[] names = [\"Mike\", \"Jack\", \"Tom\", \"Jerry\", \"Sherluck\"];\r\n    //\r\n    bool public game_is_on;\r\n    //\r\n    bool public if_night;\r\n    //\r\n    uint public wolf_counts;\r\n    //\r\n    uint public man_counts;\r\n    //\r\n    uint public day_of_game;\r\n    //\r\n    event transfer(address indexed _from, address indexed _to, uint f);\r\n\r\n    //\r\n    struct player {\r\n        address addr;//\r\n        string name;//\r\n        string role;//\r\n        string word;//\r\n        uint kill_votes;//\r\n        uint wolf_votes;//\r\n        bool if_live;//\r\n        bool if_night_vote;//\r\n        bool if_day_vote;//\r\n        bool if_say;//\r\n    }\r\n\r\n    //\r\n    function is_equal(string a, string b) internal pure returns (bool) {\r\n        if (bytes(a).length != bytes(b).length) {\r\n            return false;\r\n        }\r\n        for (uint i = 0; i < bytes(a).length; i ++) {\r\n            if(bytes(a)[i] != bytes(b)[i]) {\r\n                return false;\r\n            }\r\n        }\r\n        return true;\r\n    }\r\n\r\n    //\r\n    struct saying {\r\n        uint day;//\r\n        string name;//\r\n        string content;//\r\n    }\r\n\r\n    //\r\n    saying[] public sayings;\r\n\r\n    //\r\n    player[] public players;\r\n\r\n    //\r\n    mapping(address=>uint) public indexs;\r\n\r\n    //\r\n    mapping(string=>address) Names;\r\n\r\n    //\r\n    mapping(address=>uint) Flag;//1\r\n\r\n    //\r\n    constructor() public {\r\n        //\r\n        //require(counts >= roles.length, \"the number of players is not enough!\");\r\n        //\r\n        judge = msg.sender;\r\n        //\r\n        game_is_on = false;\r\n        //0\r\n        wolf_counts = 0;\r\n        //0\r\n        man_counts = 0;\r\n        //\r\n        Flag[msg.sender] = 1;\r\n        indexs[msg.sender] = 0;\r\n        players.push(player({addr: msg.sender, name:\"judge\", role:\"judge\", word:\"\", kill_votes:0, wolf_votes:0,if_live:true, if_night_vote:false, if_day_vote:false,if_say:false}));\r\n    }\r\n\r\n    // \r\n    function add_players(address newplayer) public {\r\n        transfer(msg.sender, newplayer, 1);\r\n        //\r\n        require(msg.sender == judge, \"you don't have the right!\");\r\n        //\r\n        transfer(msg.sender, newplayer, 2);\r\n        require(game_is_on == false, \"the game is on!\");\r\n        //\r\n        transfer(msg.sender, newplayer, 3);\r\n        require(Flag[newplayer] == 0, \"you have added the player!\");\r\n        transfer(msg.sender, newplayer, 4);\r\n        //\r\n        //require(Names[hisname]==address(0), \"the name has been used!\");\r\n        uint newindex = 0;\r\n        //\r\n        uint len = players.length-1;\r\n        if (len >= roles.length) {\r\n            newindex = len%2;\r\n        }\r\n        else {\r\n            newindex = len;\r\n        }\r\n        if (newindex == 0) {\r\n            wolf_counts = wolf_counts+1;\r\n        }\r\n        else {\r\n            man_counts = man_counts+1;\r\n        }\r\n        players.push(player({addr: newplayer, name:names[len], role:roles[newindex], word:\"\", kill_votes:0, wolf_votes:0,if_live:true, if_night_vote:false, if_day_vote:false,if_say:false}));\r\n        Names[names[len]] = newplayer;\r\n        indexs[newplayer] = len+1;\r\n        Flag[newplayer] = 1;\r\n    }\r\n\r\n    //\r\n    function start_game() public {\r\n        //\r\n        require(msg.sender == judge, \"you don't have the right!\");\r\n        //\r\n        require(players.length >= roles.length, \"the number of players is not enough!\");\r\n        //\r\n        game_is_on = true;\r\n        //\r\n        if_night = true;\r\n        //\r\n        day_of_game = 1;\r\n    }\r\n\r\n    //\r\n    function get_counts_wolf() public view returns (uint) {\r\n        //\r\n        require(game_is_on == true, \"the game is not on!\");\r\n        //\r\n        require(Flag[msg.sender] == 1, \"you haven't joined the game!\");\r\n        return wolf_counts;\r\n    }\r\n\r\n    //\r\n    function get_counts_man() public view returns (uint) {\r\n        //\r\n        require(game_is_on == true, \"the game is not on!\");\r\n        //\r\n        require(Flag[msg.sender] == 1, \"you haven't joined the game!\");\r\n        return man_counts;\r\n    }\r\n\r\n    //\r\n    function vote_for_man(address hisaddress) public {\r\n        //\r\n        require(game_is_on == true, \"the game is not on!\");\r\n        //\r\n        require(Flag[msg.sender] == 1, \"you haven't joined the game!\");\r\n        //\r\n        //require(if_night == true, \"it's daytime now!\");\r\n        //\r\n        require(is_equal(players[indexs[msg.sender]].role, \"werewolf\"), \"you are not a wolf!\");\r\n        //\r\n        require(players[indexs[msg.sender]].if_night_vote == false, \"you have voted!\");\r\n        //\r\n        //require(Names[hisname] != address(0), \"the name doesn't exist!\"); \r\n        //\r\n        //require(players[indexs[Names[hisname]]].if_live == true, \"the guy has died!\");\r\n        //\r\n        require(players[indexs[msg.sender]].if_live == true, \"you have died!\");\r\n        players[indexs[hisaddress]].kill_votes = players[indexs[hisaddress]].kill_votes+1;\r\n        players[indexs[msg.sender]].if_night_vote = true;\r\n    }\r\n\r\n    //\r\n    function if_is_wolf(string hisname) public view returns(bool) {\r\n        //\r\n        require(game_is_on == true, \"the game is not on!\");\r\n        //\r\n        require(Flag[msg.sender] == 1, \"you haven't joined the game!\");\r\n        //\r\n        require(msg.sender == judge || is_equal(players[indexs[msg.sender]].role, \"werewolf\"), \"you don't have the right!\");\r\n        //\r\n        require(Names[hisname] != address(0), \"the name doesn't exist!\"); \r\n        return is_equal(players[indexs[Names[hisname]]].role, \"werewolf\");\r\n    }\r\n\r\n    //,\r\n    function Day_breaks() public returns(string) {\r\n        //\r\n        require(Flag[msg.sender] == 1, \"you haven't joined the game!\");\r\n        //\r\n        require(msg.sender == judge, \"you don't have the right!\");\r\n        //\r\n        require(game_is_on == true, \"the game is not on!\");\r\n        //\r\n        require(if_night == true, \"it's daytime now!\");\r\n        //\r\n        bool if_all = true;\r\n        uint i = 0;\r\n        for (i = 1; i < players.length; i++) {\r\n            if (is_equal(players[i].role, \"werewolf\") && players[i].if_night_vote == false && players[i].if_live == true) {\r\n                if_all = false;\r\n                break;\r\n            }\r\n        }\r\n        require(if_all == true, \"some werewolves haven't voted\");\r\n        uint max_votes = 0;//\r\n        string memory deadname = \"\";//\r\n        for (i = 1; i < players.length; i++) {\r\n            if (players[i].kill_votes > max_votes && players[i].if_live == true) {\r\n                max_votes = players[i].kill_votes;\r\n                deadname = players[i].name;\r\n            }\r\n            //\r\n            players[i].kill_votes = 0;\r\n            players[i].if_night_vote = false;\r\n        }\r\n        players[indexs[Names[deadname]]].if_live = false;\r\n        if (is_equal(players[indexs[Names[deadname]]].role, \"werewolf\")) {\r\n            wolf_counts = wolf_counts-1;\r\n        }\r\n        else {\r\n            man_counts = man_counts-1;\r\n        }\r\n        if_night = false;\r\n        //\r\n        if (wolf_counts == 0 || man_counts == 0) {\r\n            game_is_on = false;\r\n        }\r\n        //\r\n        day_of_game = day_of_game+1;\r\n        return deadname;\r\n    }\r\n\r\n    //\r\n    function player_saying(string words) public {\r\n        //\r\n        //sayings.push(saying({day:day_of_game, name:players[indexs[msg.sender]].name, content:words}));\r\n        //\r\n        players[indexs[msg.sender]].word = words;\r\n    }\r\n\r\n    //\r\n    function vote_for_wolf(address hisaddress) public {\r\n        // //\r\n        // if (game_is_on == true) {\r\n        //     return \"the game is not on!\";\r\n        // }\r\n        // //\r\n        // if (Flag[msg.sender] == 1) {\r\n        //     return \"you haven't joined the game!\";\r\n        // }\r\n        // //\r\n        // if (if_night == false) {\r\n        //     return \"it's nighttime now!\";\r\n        // }\r\n        // //\r\n        // if (players[indexs[msg.sender]].if_day_vote == false) {\r\n        //     return \"you have voted!\";\r\n        // }\r\n        // //\r\n        // require(Names[hisname] != address(0), \"the name doesn't exist!\"); \r\n        // //\r\n        // require(players[indexs[Names[hisname]]].if_live == true, \"the guy has died!\");\r\n        // //\r\n        // require(players[indexs[msg.sender]].if_live == true, \"you have died!\");\r\n        // //\r\n        // bool if_all = true;\r\n        // uint i = 0;\r\n        // for (i = 0; i < players.length; i++) {\r\n        //     if (players[i].if_say == false && players[i].if_live == true) {\r\n        //         if_all = false;\r\n        //         break;\r\n        //     }\r\n        // }\r\n        // require(if_all == true, \"someone hasn't said!\");\r\n        players[indexs[hisaddress]].wolf_votes = players[indexs[hisaddress]].wolf_votes+1;\r\n        players[indexs[msg.sender]].if_day_vote = true;\r\n    }\r\n\r\n    //,\r\n    function Day_over() public returns(string) {\r\n        //\r\n        require(Flag[msg.sender] == 1, \"you haven't joined the game!\");\r\n        //\r\n        require(msg.sender == judge, \"you don't have the right!\");\r\n        //\r\n        require(game_is_on == true, \"the game is not on!\");\r\n        //\r\n        require(if_night == false, \"it's daytime now!\");\r\n        //\r\n        bool if_all = true;\r\n        uint i = 0;\r\n        for (i = 1; i < players.length; i++) {\r\n            if (players[i].if_day_vote == false && players[i].if_live == true) {\r\n                if_all = false;\r\n                break;\r\n            }\r\n        }\r\n        require(if_all == true, \"someone hasn't voted\");\r\n        uint max_votes = 0;//\r\n        string memory deadname = \"\";//\r\n        for (i = 1; i < players.length; i++) {\r\n            if (players[i].wolf_votes > max_votes && players[i].if_live == true) {\r\n                max_votes = players[i].wolf_votes;\r\n                deadname = players[i].name;\r\n            }\r\n            //\r\n            players[i].wolf_votes = 0;\r\n            players[i].if_day_vote = false;\r\n            players[i].if_say = false;\r\n        }\r\n        players[indexs[Names[deadname]]].if_live = false;\r\n        if (is_equal(players[indexs[Names[deadname]]].role, \"werewolf\")) {\r\n            wolf_counts = wolf_counts-1;\r\n        }\r\n        else {\r\n            man_counts = man_counts-1;\r\n        }\r\n        if_night = true;\r\n        //\r\n        if (wolf_counts == 0 || man_counts == 0) {\r\n            game_is_on = false;\r\n        }\r\n        return deadname;\r\n    }\r\n\r\n    //\r\n    function get_result() public view returns(string) {\r\n        //\r\n        require(Flag[msg.sender] == 1, \"you haven't joined the game!\");\r\n        //\r\n        //require(game_is_on == false, \"the game is still on!\");\r\n        if (game_is_on == true) {\r\n            return \"\";\r\n        }\r\n        //\r\n        if (wolf_counts < man_counts) {\r\n            return \"!\";\r\n        }\r\n        else {\r\n            return \"!\";\r\n        }\r\n    }\r\n\r\n    //\r\n    function query_role(address addr) public view returns(string) {\r\n        if (Flag[addr] == 0) {\r\n            return \"\";\r\n        }\r\n        else {\r\n            return players[indexs[addr]].role;\r\n        }\r\n    }\r\n    //\r\n    function query_number(address addr) public view returns(uint) {\r\n        return indexs[addr];\r\n    }\r\n    //\r\n    function query_address(uint i) public view returns(address) {\r\n        return players[i].addr;\r\n    }\r\n    //\r\n    function query_total()public view returns(uint) {\r\n        return players.length;\r\n    }\r\n    //\r\n    function query_lives(uint i) public view returns(bool) {\r\n        return players[i].if_live;\r\n    }\r\n    //\r\n    function query_word(uint i) public view returns(string) {\r\n        return players[i].word;\r\n    }\r\n    //\r\n    function query_dvote(uint i)public view returns(uint) {\r\n        return players[i].wolf_votes;\r\n    }\r\n    //\r\n    function query_nvote(uint i)public view returns(uint) {\r\n        return players[i].kill_votes;\r\n    }\r\n} ",
  "sourcePath": "C:\\Users\\13371\\killwolf\\contracts\\KillWolf.sol",
  "compiler": {
    "name": "solc",
    "version": "0.4.25+commit.59dbf8f1.Emscripten.clang"
  },
  "schemaVersion": "2.0.2",
  "updatedAt": "2018-12-30T12:39:30.718Z"
}